{
  "contractName": "PictureAuction",
  "abi": [
    {
      "constant": true,
      "inputs": [
        {
          "name": "",
          "type": "uint256"
        }
      ],
      "name": "items",
      "outputs": [
        {
          "name": "name",
          "type": "string"
        },
        {
          "name": "time",
          "type": "uint256"
        }
      ],
      "payable": false,
      "stateMutability": "view",
      "type": "function"
    },
    {
      "inputs": [
        {
          "name": "_name",
          "type": "string"
        }
      ],
      "payable": false,
      "stateMutability": "nonpayable",
      "type": "constructor"
    },
    {
      "constant": false,
      "inputs": [
        {
          "name": "_name",
          "type": "string"
        }
      ],
      "name": "listUp",
      "outputs": [],
      "payable": false,
      "stateMutability": "nonpayable",
      "type": "function"
    },
    {
      "constant": false,
      "inputs": [
        {
          "name": "_id",
          "type": "uint256"
        }
      ],
      "name": "bidOn",
      "outputs": [],
      "payable": true,
      "stateMutability": "payable",
      "type": "function"
    },
    {
      "constant": false,
      "inputs": [
        {
          "name": "_id",
          "type": "uint256"
        }
      ],
      "name": "closeAuc",
      "outputs": [],
      "payable": false,
      "stateMutability": "nonpayable",
      "type": "function"
    },
    {
      "constant": true,
      "inputs": [
        {
          "name": "_id",
          "type": "uint256"
        }
      ],
      "name": "ganjebi",
      "outputs": [
        {
          "name": "name",
          "type": "string"
        },
        {
          "name": "time",
          "type": "uint256"
        },
        {
          "name": "",
          "type": "uint256"
        }
      ],
      "payable": false,
      "stateMutability": "view",
      "type": "function"
    }
  ],
  "bytecode": "0x608060405234801561001057600080fd5b50604051610b86380380610b868339810180604052602081101561003357600080fd5b81019080805164010000000081111561004b57600080fd5b8281019050602081018481111561006157600080fd5b815185600182028301116401000000008211171561007e57600080fd5b5050929190505050336000806101000a81548173ffffffffffffffffffffffffffffffffffffffff021916908373ffffffffffffffffffffffffffffffffffffffff16021790555080600190805190602001906100dc9291906100e3565b5050610188565b828054600181600116156101000203166002900490600052602060002090601f016020900481019282601f1061012457805160ff1916838001178555610152565b82800160010185558215610152579182015b82811115610151578251825591602001919060010190610136565b5b50905061015f9190610163565b5090565b61018591905b80821115610181576000816000905550600101610169565b5090565b90565b6109ef806101976000396000f3fe60806040526004361061006d576000357c0100000000000000000000000000000000000000000000000000000000900463ffffffff1680634751d33c146100725780634b32bfa0146100ad5780635126fd98146100db5780637eae6cd0146101a3578063bfb231d214610265575b600080fd5b34801561007e57600080fd5b506100ab6004803603602081101561009557600080fd5b8101908080359060200190929190505050610320565b005b6100d9600480360360208110156100c357600080fd5b810190808035906020019092919050505061035a565b005b3480156100e757600080fd5b506101a1600480360360208110156100fe57600080fd5b810190808035906020019064010000000081111561011b57600080fd5b82018360208201111561012d57600080fd5b8035906020019184600183028401116401000000008311171561014f57600080fd5b91908080601f016020809104026020016040519081016040528093929190818152602001838380828437600081840152601f19601f82011690508083019250505050505050919291929050505061056b565b005b3480156101af57600080fd5b506101dc600480360360208110156101c657600080fd5b810190808035906020019092919050505061067f565b6040518080602001848152602001838152602001828103825285818151815260200191508051906020019080838360005b8381101561022857808201518184015260208101905061020d565b50505050905090810190601f1680156102555780820380516001836020036101000a031916815260200191505b5094505050505060405180910390f35b34801561027157600080fd5b5061029e6004803603602081101561028857600080fd5b8101908080359060200190929190505050610771565b6040518080602001838152602001828103825284818151815260200191508051906020019080838360005b838110156102e45780820151818401526020810190506102c9565b50505050905090810190601f1680156103115780820380516001836020036101000a031916815260200191505b50935050505060405180910390f35b4260028281548110151561033057fe5b90600052602060002090600202016001015414151561034e57600080fd5b6103578161083c565b50565b4260028281548110151561036a57fe5b9060005260206000209060020201600101541115151561038957600080fd5b343373ffffffffffffffffffffffffffffffffffffffff1631101515156103af57600080fd5b42600760003373ffffffffffffffffffffffffffffffffffffffff1673ffffffffffffffffffffffffffffffffffffffff168152602001908152602001600020541015156103fc57600080fd5b60006003541415610454573460038190555033600460006101000a81548173ffffffffffffffffffffffffffffffffffffffff021916908373ffffffffffffffffffffffffffffffffffffffff160217905550610521565b3460035410801561046757506000600354115b1561052057600460009054906101000a900473ffffffffffffffffffffffffffffffffffffffff1673ffffffffffffffffffffffffffffffffffffffff166108fc6003549081150290604051600060405180830381858888f193505050501580156104d6573d6000803e3d6000fd5b503460038190555033600460006101000a81548173ffffffffffffffffffffffffffffffffffffffff021916908373ffffffffffffffffffffffffffffffffffffffff1602179055505b5b601e4201600760003373ffffffffffffffffffffffffffffffffffffffff1673ffffffffffffffffffffffffffffffffffffffff1681526020019081526020016000208190555050565b6000600160026040805190810160405280858152602001603c42018152509080600181540180825580915050906001820390600052602060002090600202016000909192909190915060008201518160000190805190602001906105d092919061091e565b50602082015181600101555050039050336006600083815260200190815260200160002060006101000a81548173ffffffffffffffffffffffffffffffffffffffff021916908373ffffffffffffffffffffffffffffffffffffffff16021790555033600560006101000a81548173ffffffffffffffffffffffffffffffffffffffff021916908373ffffffffffffffffffffffffffffffffffffffff16021790555060006003819055505050565b606060008060028481548110151561069357fe5b90600052602060002090600202016000016002858154811015156106b357fe5b906000526020600020906002020160010154600354828054600181600116156101000203166002900480601f01602080910402602001604051908101604052809291908181526020018280546001816001161561010002031660029004801561075d5780601f106107325761010080835404028352916020019161075d565b820191906000526020600020905b81548152906001019060200180831161074057829003601f168201915b505050505092509250925092509193909250565b60028181548110151561078057fe5b9060005260206000209060020201600091509050806000018054600181600116156101000203166002900480601f01602080910402602001604051908101604052809291908181526020018280546001816001161561010002031660029004801561082c5780601f106108015761010080835404028352916020019161082c565b820191906000526020600020905b81548152906001019060200180831161080f57829003601f168201915b5050505050908060010154905082565b600560009054906101000a900473ffffffffffffffffffffffffffffffffffffffff1673ffffffffffffffffffffffffffffffffffffffff166108fc6003549081150290604051600060405180830381858888f193505050501580156108a6573d6000803e3d6000fd5b50600460009054906101000a900473ffffffffffffffffffffffffffffffffffffffff166006600083815260200190815260200160002060006101000a81548173ffffffffffffffffffffffffffffffffffffffff021916908373ffffffffffffffffffffffffffffffffffffffff16021790555050565b828054600181600116156101000203166002900490600052602060002090601f016020900481019282601f1061095f57805160ff191683800117855561098d565b8280016001018555821561098d579182015b8281111561098c578251825591602001919060010190610971565b5b50905061099a919061099e565b5090565b6109c091905b808211156109bc5760008160009055506001016109a4565b5090565b9056fea165627a7a7230582085c849089fd90435dc9b41f2c0549191efc92a4e2ef2168c4e7d26e9ef09355d0029",
  "source": "pragma solidity ^0.5.0;\r\n\r\ncontract PictureAuction {\r\n    address contractOwner;\r\n    string contractName;\r\n    constructor (string memory _name) public {\r\n        contractOwner = msg.sender;\r\n        contractName=_name;\r\n    }\r\n\r\n    //상품\r\n    struct Item {\r\n        string name;\r\n        uint time;\r\n    }\r\n\r\n    Item[] public items;\r\n \r\n    uint topBid;                 //최고 입찰가\r\n    address payable topBidder;   //최고 입찰자\r\n    address payable seller;      //입찰금액 지급 주소(to 상품 판매자)\r\n\r\n    mapping (uint => address) productToOwner;   //상품의 주인 \r\n    mapping (address => uint) bidCooltime;      //입찰 쿨 타임, 고의적인 반복입찰 방지\r\n\r\n    //상품 등록\r\n    function listUp(string memory _name) public {\r\n        uint id = items.push(Item(_name, now + 1 minutes))-1;\r\n        productToOwner[id] = msg.sender;\r\n        seller = address(uint160(msg.sender));\r\n        topBid = 0;\r\n    }\r\n\r\n    // @title 입찰, 입찰에는 다음과 같은 규칙이 있다.\r\n    // * 입찰금이 본인의 계좌의 잔액 이하일 것\r\n    // * 한 번 입찰가를 등록하면 30초동안 입찰할 수 없다.\r\n    function bidOn(uint _id) public payable {\r\n        require(items[_id].time <= now);\r\n        require(msg.sender.balance >= msg.value);\r\n        require(bidCooltime[msg.sender] < now);\r\n        if(topBid == 0){\r\n            topBid = msg.value;\r\n            topBidder =address(uint160(msg.sender));\r\n        }else if(topBid < msg.value && topBid>0){\r\n            //입찰가가 갱신되면, 전의 top Bidder에게 돈을 돌려주고,\r\n            //갱신가를 top bid로, 갱신자를 top bidder로 설정\r\n            topBidder.transfer(topBid);\r\n            topBid = msg.value;\r\n            topBidder =address(uint160(msg.sender));\r\n        } \r\n        bidCooltime[msg.sender] = now + 30 seconds;\r\n    }\r\n\r\n    //경매 종료\r\n    function closeAuc(uint _id) public {\r\n        require(items[_id].time == now);\r\n        _reward(_id);\r\n    }\r\n\r\n    //경매 보상\r\n    function _reward(uint _id) private {\r\n        seller.transfer(topBid);            //돈 주고\r\n        productToOwner[_id] = topBidder;    //상품 주인 바꿔주고\r\n    }\r\n\r\n    //경매 결과 확인(경매가 간보기)\r\n    function ganjebi(uint _id) public view returns (string memory name, uint time, uint) {\r\n        return (items[_id].name, items[_id].time, topBid);\r\n    }\r\n}",
  "sourcePath": "C:/work/solidity/auction/contracts/PictureAuction.sol",
  "compiler": {
    "name": "solc",
    "version": "0.5.0+commit.1d4f565a.Emscripten.clang"
  },
  "schemaVersion": "3.0.6",
  "updatedAt": "2019-04-07T01:15:18.300Z",
  "devdoc": {
    "methods": {}
  },
  "userdoc": {
    "methods": {}
  }
}